{"abi":[{"type":"constructor","inputs":[],"stateMutability":"nonpayable"},{"type":"function","name":"LIQUIDATION_FEE_BPS","inputs":[],"outputs":[{"name":"","type":"uint256","internalType":"uint256"}],"stateMutability":"view"},{"type":"function","name":"acceptLoanOffer","inputs":[{"name":"loanId","type":"uint256","internalType":"uint256"}],"outputs":[],"stateMutability":"nonpayable"},{"type":"function","name":"activeLoanOfferIds","inputs":[{"name":"","type":"uint256","internalType":"uint256"}],"outputs":[{"name":"","type":"uint256","internalType":"uint256"}],"stateMutability":"view"},{"type":"function","name":"addCollateral","inputs":[{"name":"loanId","type":"uint256","internalType":"uint256"},{"name":"additionalAmount","type":"uint256","internalType":"uint256"}],"outputs":[],"stateMutability":"nonpayable"},{"type":"function","name":"borrowerLoans","inputs":[{"name":"","type":"address","internalType":"address"},{"name":"","type":"uint256","internalType":"uint256"}],"outputs":[{"name":"","type":"uint256","internalType":"uint256"}],"stateMutability":"view"},{"type":"function","name":"calculateCurrentInterest","inputs":[{"name":"loanId","type":"uint256","internalType":"uint256"}],"outputs":[{"name":"","type":"uint256","internalType":"uint256"}],"stateMutability":"view"},{"type":"function","name":"calculateTotalRepayment","inputs":[{"name":"loanId","type":"uint256","internalType":"uint256"}],"outputs":[{"name":"","type":"uint256","internalType":"uint256"}],"stateMutability":"view"},{"type":"function","name":"cancelLoanOffer","inputs":[{"name":"loanId","type":"uint256","internalType":"uint256"}],"outputs":[],"stateMutability":"nonpayable"},{"type":"function","name":"checkDomainLockStatus","inputs":[{"name":"loanId","type":"uint256","internalType":"uint256"},{"name":"domaOwnershipAddress","type":"address","internalType":"address"}],"outputs":[{"name":"isLocked","type":"bool","internalType":"bool"},{"name":"domainId","type":"uint256","internalType":"uint256"}],"stateMutability":"view"},{"type":"function","name":"createLoanOffer","inputs":[{"name":"_tokenAddress","type":"address","internalType":"address"},{"name":"_amount","type":"uint256","internalType":"uint256"},{"name":"_interestRate","type":"uint256","internalType":"uint256"},{"name":"_duration","type":"uint256","internalType":"uint256"},{"name":"_collateralAddress","type":"address","internalType":"address"},{"name":"_collateralAmount","type":"uint256","internalType":"uint256"},{"name":"_minCollateralRatioBPS","type":"uint256","internalType":"uint256"},{"name":"_liquidationThresholdBPS","type":"uint256","internalType":"uint256"},{"name":"_maxPriceStaleness","type":"uint256","internalType":"uint256"}],"outputs":[],"stateMutability":"nonpayable"},{"type":"function","name":"createLoanOffer","inputs":[{"name":"_tokenAddress","type":"address","internalType":"address"},{"name":"_amount","type":"uint256","internalType":"uint256"},{"name":"_interestRate","type":"uint256","internalType":"uint256"},{"name":"_duration","type":"uint256","internalType":"uint256"},{"name":"_collateralAddress","type":"address","internalType":"address"},{"name":"_collateralAmount","type":"uint256","internalType":"uint256"}],"outputs":[],"stateMutability":"nonpayable"},{"type":"function","name":"domaRankOracleAddress","inputs":[],"outputs":[{"name":"","type":"address","internalType":"address"}],"stateMutability":"view"},{"type":"function","name":"filterDomaBackedLoans","inputs":[{"name":"loanIds","type":"uint256[]","internalType":"uint256[]"}],"outputs":[{"name":"","type":"uint256[]","internalType":"uint256[]"}],"stateMutability":"view"},{"type":"function","name":"getActiveLoanOffers","inputs":[],"outputs":[{"name":"","type":"uint256[]","internalType":"uint256[]"}],"stateMutability":"view"},{"type":"function","name":"getActiveLoanOffersCount","inputs":[],"outputs":[{"name":"","type":"uint256","internalType":"uint256"}],"stateMutability":"view"},{"type":"function","name":"getActiveLoanOffersPaginated","inputs":[{"name":"startIndex","type":"uint256","internalType":"uint256"},{"name":"count","type":"uint256","internalType":"uint256"}],"outputs":[{"name":"","type":"uint256[]","internalType":"uint256[]"}],"stateMutability":"view"},{"type":"function","name":"getBorrowerLoans","inputs":[{"name":"borrower","type":"address","internalType":"address"}],"outputs":[{"name":"","type":"uint256[]","internalType":"uint256[]"}],"stateMutability":"view"},{"type":"function","name":"getBorrowerLoansCount","inputs":[{"name":"borrower","type":"address","internalType":"address"}],"outputs":[{"name":"","type":"uint256","internalType":"uint256"}],"stateMutability":"view"},{"type":"function","name":"getBorrowerLoansPaginated","inputs":[{"name":"borrower","type":"address","internalType":"address"},{"name":"startIndex","type":"uint256","internalType":"uint256"},{"name":"count","type":"uint256","internalType":"uint256"}],"outputs":[{"name":"","type":"uint256[]","internalType":"uint256[]"}],"stateMutability":"view"},{"type":"function","name":"getDomainTokenId","inputs":[{"name":"loanId","type":"uint256","internalType":"uint256"}],"outputs":[{"name":"","type":"uint256","internalType":"uint256"}],"stateMutability":"view"},{"type":"function","name":"getLenderLoans","inputs":[{"name":"lender","type":"address","internalType":"address"}],"outputs":[{"name":"","type":"uint256[]","internalType":"uint256[]"}],"stateMutability":"view"},{"type":"function","name":"getLenderLoansCount","inputs":[{"name":"lender","type":"address","internalType":"address"}],"outputs":[{"name":"","type":"uint256","internalType":"uint256"}],"stateMutability":"view"},{"type":"function","name":"getLenderLoansPaginated","inputs":[{"name":"lender","type":"address","internalType":"address"},{"name":"startIndex","type":"uint256","internalType":"uint256"},{"name":"count","type":"uint256","internalType":"uint256"}],"outputs":[{"name":"","type":"uint256[]","internalType":"uint256[]"}],"stateMutability":"view"},{"type":"function","name":"getLoan","inputs":[{"name":"loanId","type":"uint256","internalType":"uint256"}],"outputs":[{"name":"","type":"tuple","internalType":"struct DreamLend.Loan","components":[{"name":"id","type":"uint256","internalType":"uint256"},{"name":"lender","type":"address","internalType":"address"},{"name":"borrower","type":"address","internalType":"address"},{"name":"tokenAddress","type":"address","internalType":"address"},{"name":"amount","type":"uint256","internalType":"uint256"},{"name":"interestRate","type":"uint256","internalType":"uint256"},{"name":"duration","type":"uint256","internalType":"uint256"},{"name":"collateralAddress","type":"address","internalType":"address"},{"name":"collateralAmount","type":"uint256","internalType":"uint256"},{"name":"startTime","type":"uint256","internalType":"uint256"},{"name":"status","type":"uint8","internalType":"enum DreamLend.LoanStatus"},{"name":"minCollateralRatioBPS","type":"uint256","internalType":"uint256"},{"name":"liquidationThresholdBPS","type":"uint256","internalType":"uint256"},{"name":"maxPriceStaleness","type":"uint256","internalType":"uint256"},{"name":"repaidAmount","type":"uint256","internalType":"uint256"},{"name":"isDomaCollateral","type":"bool","internalType":"bool"},{"name":"domainTokenId","type":"uint256","internalType":"uint256"}]}],"stateMutability":"view"},{"type":"function","name":"getLoanHealthFactor","inputs":[{"name":"loanId","type":"uint256","internalType":"uint256"}],"outputs":[{"name":"currentRatio","type":"uint256","internalType":"uint256"},{"name":"priceStale","type":"bool","internalType":"bool"}],"stateMutability":"view"},{"type":"function","name":"getLoanRepaymentInfo","inputs":[{"name":"loanId","type":"uint256","internalType":"uint256"}],"outputs":[{"name":"totalOwed","type":"uint256","internalType":"uint256"},{"name":"repaidAmount","type":"uint256","internalType":"uint256"},{"name":"remainingAmount","type":"uint256","internalType":"uint256"},{"name":"interestAccrued","type":"uint256","internalType":"uint256"}],"stateMutability":"view"},{"type":"function","name":"getRecommendedParameters","inputs":[{"name":"loanAsset","type":"address","internalType":"address"},{"name":"collateralAsset","type":"address","internalType":"address"}],"outputs":[{"name":"minRatio","type":"uint256","internalType":"uint256"},{"name":"liquidationThreshold","type":"uint256","internalType":"uint256"},{"name":"maxStaleness","type":"uint256","internalType":"uint256"}],"stateMutability":"pure"},{"type":"function","name":"getSupportedTokens","inputs":[],"outputs":[{"name":"tokens","type":"address[]","internalType":"address[]"}],"stateMutability":"pure"},{"type":"function","name":"isDomaBackedLoan","inputs":[{"name":"loanId","type":"uint256","internalType":"uint256"}],"outputs":[{"name":"","type":"bool","internalType":"bool"}],"stateMutability":"view"},{"type":"function","name":"isLoanDefaulted","inputs":[{"name":"loanId","type":"uint256","internalType":"uint256"}],"outputs":[{"name":"","type":"bool","internalType":"bool"}],"stateMutability":"view"},{"type":"function","name":"isLoanPairSupported","inputs":[{"name":"loanAsset","type":"address","internalType":"address"},{"name":"collateralAsset","type":"address","internalType":"address"}],"outputs":[{"name":"supported","type":"bool","internalType":"bool"}],"stateMutability":"view"},{"type":"function","name":"lenderLoans","inputs":[{"name":"","type":"address","internalType":"address"},{"name":"","type":"uint256","internalType":"uint256"}],"outputs":[{"name":"","type":"uint256","internalType":"uint256"}],"stateMutability":"view"},{"type":"function","name":"liquidateLoan","inputs":[{"name":"loanId","type":"uint256","internalType":"uint256"}],"outputs":[],"stateMutability":"nonpayable"},{"type":"function","name":"loanExists","inputs":[{"name":"loanId","type":"uint256","internalType":"uint256"}],"outputs":[{"name":"","type":"bool","internalType":"bool"}],"stateMutability":"view"},{"type":"function","name":"loans","inputs":[{"name":"","type":"uint256","internalType":"uint256"}],"outputs":[{"name":"id","type":"uint256","internalType":"uint256"},{"name":"lender","type":"address","internalType":"address"},{"name":"borrower","type":"address","internalType":"address"},{"name":"tokenAddress","type":"address","internalType":"address"},{"name":"amount","type":"uint256","internalType":"uint256"},{"name":"interestRate","type":"uint256","internalType":"uint256"},{"name":"duration","type":"uint256","internalType":"uint256"},{"name":"collateralAddress","type":"address","internalType":"address"},{"name":"collateralAmount","type":"uint256","internalType":"uint256"},{"name":"startTime","type":"uint256","internalType":"uint256"},{"name":"status","type":"uint8","internalType":"enum DreamLend.LoanStatus"},{"name":"minCollateralRatioBPS","type":"uint256","internalType":"uint256"},{"name":"liquidationThresholdBPS","type":"uint256","internalType":"uint256"},{"name":"maxPriceStaleness","type":"uint256","internalType":"uint256"},{"name":"repaidAmount","type":"uint256","internalType":"uint256"},{"name":"isDomaCollateral","type":"bool","internalType":"bool"},{"name":"domainTokenId","type":"uint256","internalType":"uint256"}],"stateMutability":"view"},{"type":"function","name":"makePartialRepayment","inputs":[{"name":"loanId","type":"uint256","internalType":"uint256"},{"name":"repaymentAmount","type":"uint256","internalType":"uint256"}],"outputs":[],"stateMutability":"nonpayable"},{"type":"function","name":"nextLoanId","inputs":[],"outputs":[{"name":"","type":"uint256","internalType":"uint256"}],"stateMutability":"view"},{"type":"function","name":"owner","inputs":[],"outputs":[{"name":"","type":"address","internalType":"address"}],"stateMutability":"view"},{"type":"function","name":"removeCollateral","inputs":[{"name":"loanId","type":"uint256","internalType":"uint256"},{"name":"removeAmount","type":"uint256","internalType":"uint256"}],"outputs":[],"stateMutability":"nonpayable"},{"type":"function","name":"renounceOwnership","inputs":[],"outputs":[],"stateMutability":"nonpayable"},{"type":"function","name":"repayLoan","inputs":[{"name":"loanId","type":"uint256","internalType":"uint256"}],"outputs":[],"stateMutability":"nonpayable"},{"type":"function","name":"setDomaRankOracle","inputs":[{"name":"_oracleAddress","type":"address","internalType":"address"}],"outputs":[],"stateMutability":"nonpayable"},{"type":"function","name":"setTokenPriceFeed","inputs":[{"name":"_tokenAddress","type":"address","internalType":"address"},{"name":"_feedAddress","type":"address","internalType":"address"}],"outputs":[],"stateMutability":"nonpayable"},{"type":"function","name":"tokenPriceFeeds","inputs":[{"name":"","type":"address","internalType":"address"}],"outputs":[{"name":"","type":"address","internalType":"contract AggregatorV3Interface"}],"stateMutability":"view"},{"type":"function","name":"transferOwnership","inputs":[{"name":"newOwner","type":"address","internalType":"address"}],"outputs":[],"stateMutability":"nonpayable"},{"type":"event","name":"CollateralAdded","inputs":[{"name":"loanId","type":"uint256","indexed":true,"internalType":"uint256"},{"name":"borrower","type":"address","indexed":true,"internalType":"address"},{"name":"amount","type":"uint256","indexed":false,"internalType":"uint256"},{"name":"newCollateralRatio","type":"uint256","indexed":false,"internalType":"uint256"},{"name":"timestamp","type":"uint256","indexed":false,"internalType":"uint256"}],"anonymous":false},{"type":"event","name":"CollateralRemoved","inputs":[{"name":"loanId","type":"uint256","indexed":true,"internalType":"uint256"},{"name":"borrower","type":"address","indexed":true,"internalType":"address"},{"name":"amount","type":"uint256","indexed":false,"internalType":"uint256"},{"name":"newCollateralRatio","type":"uint256","indexed":false,"internalType":"uint256"},{"name":"timestamp","type":"uint256","indexed":false,"internalType":"uint256"}],"anonymous":false},{"type":"event","name":"DomaRankOracleSet","inputs":[{"name":"newOracleAddress","type":"address","indexed":true,"internalType":"address"}],"anonymous":false},{"type":"event","name":"LoanAccepted","inputs":[{"name":"loanId","type":"uint256","indexed":true,"internalType":"uint256"},{"name":"borrower","type":"address","indexed":true,"internalType":"address"},{"name":"timestamp","type":"uint256","indexed":false,"internalType":"uint256"},{"name":"initialCollateralRatio","type":"uint256","indexed":false,"internalType":"uint256"}],"anonymous":false},{"type":"event","name":"LoanCreated","inputs":[{"name":"loanId","type":"uint256","indexed":true,"internalType":"uint256"},{"name":"lender","type":"address","indexed":true,"internalType":"address"},{"name":"tokenAddress","type":"address","indexed":true,"internalType":"address"},{"name":"amount","type":"uint256","indexed":false,"internalType":"uint256"},{"name":"interestRate","type":"uint256","indexed":false,"internalType":"uint256"},{"name":"duration","type":"uint256","indexed":false,"internalType":"uint256"},{"name":"collateralAddress","type":"address","indexed":false,"internalType":"address"},{"name":"collateralAmount","type":"uint256","indexed":false,"internalType":"uint256"},{"name":"minCollateralRatioBPS","type":"uint256","indexed":false,"internalType":"uint256"},{"name":"liquidationThresholdBPS","type":"uint256","indexed":false,"internalType":"uint256"},{"name":"maxPriceStaleness","type":"uint256","indexed":false,"internalType":"uint256"}],"anonymous":false},{"type":"event","name":"LoanLiquidated","inputs":[{"name":"loanId","type":"uint256","indexed":true,"internalType":"uint256"},{"name":"liquidator","type":"address","indexed":true,"internalType":"address"},{"name":"collateralClaimedByLender","type":"uint256","indexed":false,"internalType":"uint256"},{"name":"liquidatorReward","type":"uint256","indexed":false,"internalType":"uint256"},{"name":"timestamp","type":"uint256","indexed":false,"internalType":"uint256"}],"anonymous":false},{"type":"event","name":"LoanOfferCancelled","inputs":[{"name":"loanId","type":"uint256","indexed":true,"internalType":"uint256"},{"name":"lender","type":"address","indexed":true,"internalType":"address"},{"name":"timestamp","type":"uint256","indexed":false,"internalType":"uint256"}],"anonymous":false},{"type":"event","name":"LoanOfferRemoved","inputs":[{"name":"loanId","type":"uint256","indexed":true,"internalType":"uint256"},{"name":"reason","type":"string","indexed":false,"internalType":"string"}],"anonymous":false},{"type":"event","name":"LoanRepaid","inputs":[{"name":"loanId","type":"uint256","indexed":true,"internalType":"uint256"},{"name":"borrower","type":"address","indexed":true,"internalType":"address"},{"name":"repaymentAmount","type":"uint256","indexed":false,"internalType":"uint256"},{"name":"timestamp","type":"uint256","indexed":false,"internalType":"uint256"}],"anonymous":false},{"type":"event","name":"OwnershipTransferred","inputs":[{"name":"previousOwner","type":"address","indexed":true,"internalType":"address"},{"name":"newOwner","type":"address","indexed":true,"internalType":"address"}],"anonymous":false},{"type":"event","name":"PartialRepayment","inputs":[{"name":"loanId","type":"uint256","indexed":true,"internalType":"uint256"},{"name":"borrower","type":"address","indexed":true,"internalType":"address"},{"name":"repaymentAmount","type":"uint256","indexed":false,"internalType":"uint256"},{"name":"totalRepaidAmount","type":"uint256","indexed":false,"internalType":"uint256"},{"name":"remainingAmount","type":"uint256","indexed":false,"internalType":"uint256"},{"name":"timestamp","type":"uint256","indexed":false,"internalType":"uint256"}],"anonymous":false},{"type":"event","name":"PriceFeedSet","inputs":[{"name":"tokenAddress","type":"address","indexed":true,"internalType":"address"},{"name":"feedAddress","type":"address","indexed":true,"internalType":"address"}],"anonymous":false},{"type":"event","name":"RewardsDistributorSet","inputs":[{"name":"oldDistributor","type":"address","indexed":true,"internalType":"address"},{"name":"newDistributor","type":"address","indexed":true,"internalType":"address"}],"anonymous":false},{"type":"error","name":"OwnableInvalidOwner","inputs":[{"name":"owner","type":"address","internalType":"address"}]},{"type":"error","name":"OwnableUnauthorizedAccount","inputs":[{"name":"account","type":"address","internalType":"address"}]},{"type":"error","name":"ReentrancyGuardReentrantCall","inputs":[]},{"type":"error","name":"SafeERC20FailedOperation","inputs":[{"name":"token","type":"address","internalType":"address"}]}],"bytecode":{"object":"0x60806040523461027a5760015f5533156102675760018054336001600160a01b0319821681179092556001600160a01b03167f8be0079c531659141344cd1fd0a4f28419497f9722a3daafe3b4186f6b6457e05f80a360016002556100626102f3565b61006a6102f3565b735c99feb638c1959144696a77cc900c58a4b4eb6f6100888361027e565b5273571d9915ea4d187b7f0b1460fd0432d7cce74c476100a78361029f565b5273e218717fe38d582b8c00a8d6363f5bc7bf32a8b66100c6836102af565b52739c15f281bfc66d2fa26686ae2e297ed5d7f61ee16100e5836102bf565b527371264e1321e1980b32002eaf6b24759dfba5e281610104836102cf565b527367d2c2a87a17b7267a6dbb1a59575c0e9a1d1c3e6101238261027e565b5273235266d5ca6f19f134421c49834c108b32c2124e6101428261029f565b52734803db1ca3a1da49c3db991e1c390321c20e1f21610161826102af565b527374952812b6a9e4f826b2969c6d189c4425cbc19b610180826102bf565b5273d5ea6c434582f827303423da21729bea4f87d51961019f826102cf565b525f5b8251811015610258576001906001600160a01b036101c082866102df565b51166101cd575b016101a2565b818060a01b036101dd82856102df565b5116828060a01b036101ef83876102df565b51165f52600860205260405f2090838060a01b0319825416179055818060a01b0361021a82866102df565b5116828060a01b0361022c83866102df565b5116907fd2d8394cf7549a5ddbc2ba3dd7b2de8d53c891472d1f2907008ed6a10045fdae5f80a36101c7565b604051613b0f90816103388239f35b631e4fbdf760e01b5f525f60045260245ffd5b5f80fd5b80511561028b5760200190565b634e487b7160e01b5f52603260045260245ffd5b80516001101561028b5760400190565b80516002101561028b5760600190565b80516003101561028b5760800190565b80516004101561028b5760a00190565b805182101561028b5760209160051b010190565b60405160c091908083016001600160401b03811182821017610323576040526005815291601f1901366020840137565b634e487b7160e01b5f52604160045260245ffdfe60e0806040526004361015610012575f80fd5b5f3560e01c9081630d51ce061461242e5750806315f515ac146123ea5780632098ef9c1461237157806321265d0e146120d55780632ff6ad6a1461207457806330edaa0a1461205a5780633cdb72f11461201157806342f89a5714611ff75780634402cc2b14611fce57806344481f7014611f4c578063504006ca14611cf157806350e4ca1a14611c3a578063518e8dfc14611c1f5780635858224b14611b8c578063674417ae14611ab5578063691ef75614611a655780636a9b189114611727578063715018a6146116cc57806374cbe57e146115cc57806379797f1a1461152657806387c51459146115095780638da5cb5b146114e1578063904796d41461146d5780639b44d82b14611450578063a8f35adf1461125a578063ab7b1c8914611114578063b29504e914610e72578063b641816114610ce5578063bd9c47e314610ca5578063ccdd9f5d14610a4e578063d3c7c2c714610886578063e1ec3c681461073d578063e3ed1902146106e5578063e4ec99a5146106b9578063e70b9c4b14610595578063e8cbab091461056d578063eb52927b14610535578063eee8b7ff146104c3578063eeeb0c1714610451578063f2fde38b146103cb578063f67c3bac14610382578063f97bcec914610358578063fc593a3714610324578063fe7f8c3a146102ec5763ff49cb881461020b575f80fd5b346102d55760c03660031901126102d557610224612451565b61022c61247d565b90610235612b41565b60405163e70b9c4b60e01b81526001600160a01b0382811660048301528316602482015291606083604481305afa9182156102e1575f905f925f94610295575b61028f955060a4359160643590604435906024359061308c565b60015f55005b93509150506060833d6060116102d9575b816102b36060938361258b565b810103126102d5578261028f9351916040602083015192015192919293610275565b5f80fd5b3d91506102a6565b6040513d5f823e3d90fd5b346102d55760203660031901126102d5576001600160a01b0361030d612451565b165f526005602052602060405f2054604051908152f35b346102d55760403660031901126102d557604061034a610342612467565b600435612a62565b825191151582526020820152f35b346102d55761037e61037261036c36612544565b906129ec565b604051918291826124bd565b0390f35b346102d55760203660031901126102d557600435805f5260036020526103ad60405f205415156125c5565b5f526003602052602060ff600f60405f200154166040519015158152f35b346102d55760203660031901126102d5576103e4612451565b6103ec613065565b6001600160a01b0316801561043e57600180546001600160a01b0319811683179091556001600160a01b03167f8be0079c531659141344cd1fd0a4f28419497f9722a3daafe3b4186f6b6457e05f80a3005b631e4fbdf760e01b5f525f60045260245ffd5b346102d55760203660031901126102d5576001600160a01b03610472612451565b165f52600460205260405f206040519081602082549182815201915f5260205f20905f5b8181106104ad5761037e856103728187038261258b565b8254845260209093019260019283019201610496565b346102d55760203660031901126102d5576001600160a01b036104e4612451565b165f52600560205260405f206040519081602082549182815201915f5260205f20905f5b81811061051f5761037e856103728187038261258b565b8254845260209093019260019283019201610508565b346102d55760203660031901126102d5576001600160a01b03610556612451565b165f526004602052602060405f2054604051908152f35b346102d55760203660031901126102d557602061058b60043561291e565b6040519015158152f35b346102d55760403660031901126102d5576105ae612451565b6105b6612467565b906105c081613a1e565b916105ca81613a1e565b91613a98612ee093600381101561068b576002810361069f5750610bb8810180911161067757926107d0810180911161067757935b600381101561068b57600214610654575b9061062661062061037e936137ab565b916137ab565b8082101561064d57505b604051938493846040919493926060820195825260208201520152565b9050610630565b9290916105dc810180911161067757916103e88201809211610677579092610610565b634e487b7160e01b5f52601160045260245ffd5b634e487b7160e01b5f52602160045260245ffd5b939490935f19016105ff576132c8945061407493506105ff565b346102d55760203660031901126102d5576004355f526003602052602060405f20541515604051908152f35b346102d55760403660031901126102d5576106fe612451565b6001600160a01b03165f908152600560205260409020805460243591908210156102d55760209161072e91612522565b90549060031b1c604051908152f35b346102d55760203660031901126102d5576004355f52600360205260405f2080808054600160a01b6001900360018301541660c052600160a01b60019003600283015416600160a01b60019003600384015416600484015460058501546006860154600160a01b6001900360078801541690600888015492600989015494600a8a015460ff1696600b8b015498600c8c01549a600d8d01549c600e01549d600f015460ff169e6010015460805260405160a05260a0515260c05160a0516020015260a0516040015260a0516060015260a0516080015260a05160a0015260a05160c0015260a05160e0015260a051610100015260a051610120015260a0516101400161084891612537565b60a051610160015260a051610180015260a0516101a0015260a0516101c00152151560a0516101e0015260805160a051610200015260a05161022090f35b346102d5575f3660031901126102d55760c06040516108a5828261258b565b6005815273d5ea6c434582f827303423da21729bea4f87d519610a02602083019360a0368637604051906108d9818361258b565b600582525060a0366020830137735c99feb638c1959144696a77cc900c58a4b4eb6f61090485612713565b5273571d9915ea4d187b7f0b1460fd0432d7cce74c4761092385612720565b5273e218717fe38d582b8c00a8d6363f5bc7bf32a8b661094285612730565b52739c15f281bfc66d2fa26686ae2e297ed5d7f61ee161096185612740565b527371264e1321e1980b32002eaf6b24759dfba5e28161098085612750565b527367d2c2a87a17b7267a6dbb1a59575c0e9a1d1c3e61099f82612713565b5273235266d5ca6f19f134421c49834c108b32c2124e6109be82612720565b52734803db1ca3a1da49c3db991e1c390321c20e1f216109dd82612730565b527374952812b6a9e4f826b2969c6d189c4425cbc19b6109fc82612740565b52612750565b52604051918291602083019060208452518091526040830191905f5b818110610a2c575050500390f35b82516001600160a01b0316845285945060209384019390920191600101610a1e565b346102d55760203660031901126102d557600435610a6a612b41565b805f52600360205260405f2090610a83825415156125c5565b600a82019160ff835416600581101561068b576001610aa29114612686565b610ab560098201546006830154906126f9565b60038201546001600160a01b039081165f908152600860205260408082205460078601805485168085529284205492969590944291909111939291811615159116151581610c9d575b50610c2e575b8115610c26575b5015610bce576008820154946064860286810460641487151715610677577f4a14ed616ce90b51a0a9222c0e231e9ce03b6885730aff30c76a5ccb7c5b810694610bb394610b61612710610b879404809a612706565b9485928a80610bbc575b505054600191909101546001600160a01b039081169116612efe565b600360ff1982541617905560405191829133964291846040919493926060820195825260208201520152565b0390a360015f55005b610bc7913390612efe565b8a8a610b6b565b60405162461bcd60e51b815260206004820152602a60248201527f4c6f616e20686173206e6f742064656661756c74656420796574202874696d65604482015269206f722070726963652960b01b6064820152608490fd5b905086610b0b565b50610c3885612bad565b610c4757600c84015411610b04565b60405162461bcd60e51b815260206004820152602860248201527f4f7261636c65207072696365732061726520746f6f207374616c6520746f206c604482015267697175696461746560c01b6064820152608490fd5b905088610afe565b346102d55760203660031901126102d5576001600160a01b03610cc6612451565b165f526008602052602060018060a01b0360405f205416604051908152f35b346102d55760203660031901126102d55760043567ffffffffffffffff81116102d557366023820112156102d557806004013590610d22826125ad565b91610d30604051938461258b565b8083526024602084019160051b830101913683116102d557602401905b828210610e6257835f805b8251811015610dc457610d6b8184612760565b515f52600360205260405f2054151580610da1575b610d8d575b600101610d58565b90610d99600191612910565b919050610d85565b50610dac8184612760565b515f52600360205260ff600f60405f20015416610d80565b50610dce906126c7565b905f805b8251811015610e5457610de58184612760565b515f52600360205260405f2054151580610e31575b610e07575b600101610dd2565b90610e29600191610e188486612760565b51610e238288612760565b52612910565b919050610dff565b50610e3c8184612760565b515f52600360205260ff600f60405f20015416610dfa565b6040518061037e86826124bd565b8135815260209182019101610d4d565b346102d557610e8036612544565b90610e89612b41565b805f52600360205260405f2091610ea2835415156125c5565b600a83019060ff825416600581101561068b576001610ec19114612686565b60028401546001600160a01b031633036110d057801561107b57610f18610eec600986015442612706565b6301e187e0610f11600488015492612710610f0b60058b01548661289b565b0461289b565b04906126f9565b610f28600e860191825490612706565b9283831161102657600386015460018701547f2b02190e2a46bee7ae18679283b2efcfd6ecc64d8e03d105101c4ef4a79e9e7295610f8e928692610f7c9184916001600160a01b0390811691339116612eb5565b610f878286546126f9565b8555612706565b958615610fc0575b50505460408051928352602083019190915281019390935242606084015233928060808101610bb3565b6007810154600890910154610fdf9133906001600160a01b0316612efe565b600260ff198254161790558054604051908152426020820152847f553c9087bff5b534e499a66dac3fa9db2962cd252ea01165239755836ae5345e60403393a38580610f96565b60405162461bcd60e51b815260206004820152602760248201527f52657061796d656e7420616d6f756e7420657863656564732072656d61696e696044820152661b99c81919589d60ca1b6064820152608490fd5b60405162461bcd60e51b815260206004820152602760248201527f52657061796d656e7420616d6f756e74206d75737420626520677265617465726044820152660207468616e20360cc1b6064820152608490fd5b606460405162461bcd60e51b815260206004820152602060248201527f4f6e6c7920626f72726f7765722063616e206d616b652072657061796d656e746044820152fd5b346102d55760203660031901126102d557600435611130612b41565b805f52600360205260405f2090611149825415156125c5565b600a820160ff815416600581101561068b5760016111679114612686565b60028301546001600160a01b03163303611215576111d261118f610eec600986015442612706565b600385015460018601549195916111b69187916001600160a01b0390811691339116612eb5565b60078101546008909101549033906001600160a01b0316612efe565b600260ff198254161790556040519182524260208301527f553c9087bff5b534e499a66dac3fa9db2962cd252ea01165239755836ae5345e60403393a360015f55005b60405162461bcd60e51b815260206004820152601760248201527f4f6e6c7920626f72726f7765722063616e2072657061790000000000000000006044820152606490fd5b346102d55761126836612544565b90611271612b41565b805f52600360205260405f209161128a835415156125c5565b60ff600a84015416600581101561068b5760016112a79114612686565b60028301546001600160a01b0316330361140c5780156113b6576007830180546112df908390309033906001600160a01b0316612eb5565b600884016112ee8382546126f9565b90556003909301546001600160a01b039081165f908152600860205260408082205495548316825281205490948216151591161515816113ae575b50611375575b610bb37fdff12abdae15c2111746f2f774401b5e1d6849991d5bce13e92f8182330236359160405191829133964291846040919493926060820195825260208201520152565b91507fdff12abdae15c2111746f2f774401b5e1d6849991d5bce13e92f818233023635610bb36113a483612bad565b509391505061132f565b905084611329565b60405162461bcd60e51b815260206004820152602860248201527f4164646974696f6e616c20616d6f756e74206d75737420626520677265617465604482015267072207468616e20360c41b6064820152608490fd5b606460405162461bcd60e51b815260206004820152602060248201527f4f6e6c7920626f72726f7765722063616e2061646420636f6c6c61746572616c6044820152fd5b346102d5575f3660031901126102d5576020600654604051908152f35b346102d5575f3660031901126102d55760405180602060065491828152019060065f527ff652222313e28459528d920b65115c16c04f3efc82aaedc97be59f3f377c0d3f905f5b8181106114cb5761037e856103728187038261258b565b82548452602090930192600192830192016114b4565b346102d5575f3660031901126102d5576001546040516001600160a01b039091168152602090f35b346102d5575f3660031901126102d5576020600254604051908152f35b346102d55760203660031901126102d55761153f612451565b611547613065565b6001600160a01b0316801561158e57600980546001600160a01b031916821790557f3bda037707ffa70e14b195544bc42ba403edd423ae4c725e6613eeba648bc0085f80a2005b60405162461bcd60e51b8152602060048201526016602482015275496e76616c6964206f7261636c65206164647265737360501b6044820152606490fd5b346102d55760203660031901126102d5576004356115e8612b41565b805f52600360205260405f20600a81019060ff825416600581101561068b576116119015612607565b60018101546001600160a01b0316903382900361168e5760038101546004909101546116479290916001600160a01b0316612efe565b805460ff1916600417905561165b81612f39565b604051904282527fe606cb27f8a88fad86003a7c5609243816f5b49b178b1c5c47e970f9c7a6d83960203393a360015f55005b60405162461bcd60e51b815260206004820152601660248201527513db9b1e481b195b99195c8818d85b8818d85b98d95b60521b6044820152606490fd5b346102d5575f3660031901126102d5576116e4613065565b600180546001600160a01b031981169091555f906001600160a01b03167f8be0079c531659141344cd1fd0a4f28419497f9722a3daafe3b4186f6b6457e08280a3005b346102d55761173536612544565b9061173e612b41565b805f52600360205260405f2091611757835415156125c5565b60ff600a84015416600581101561068b5760016117749114612686565b60028301546001600160a01b03163303611a145780156119c357600883018054908183116119695760038501546001600160a01b039081165f90815260086020526040808220546007890154841680845291909220548316151597919092161515938592918580611962575b611892575b50926117f4836117fd95612706565b90553390612efe565b5f938161188a575b50611851575b610bb37f54b6819c53801a5d5a7d6d5ab617065bf559e436720e1ff204d1c66fe3120bbf9160405191829133964291846040919493926060820195825260208201520152565b91507f54b6819c53801a5d5a7d6d5ab617065bf559e436720e1ff204d1c66fe3120bbf610bb361188083612bad565b509391505061180b565b905084611805565b909261189e9084612706565b84556118a987612bad565b91909161191d57600b0154116118c1578491886117e5565b60405162461bcd60e51b815260206004820152602e60248201527f52656d6f76616c20776f756c642076696f6c617465206d696e696d756d20636f60448201526d6c6c61746572616c20726174696f60901b6064820152608490fd5b60405162461bcd60e51b815260206004820152601b60248201527f4f7261636c65207072696365732061726520746f6f207374616c6500000000006044820152606490fd5b50886117e0565b60405162461bcd60e51b815260206004820152602c60248201527f43616e6e6f742072656d6f7665206d6f7265207468616e20617661696c61626c60448201526b194818dbdb1b185d195c985b60a21b6064820152608490fd5b60405162461bcd60e51b8152602060048201526024808201527f52656d6f766520616d6f756e74206d75737420626520677265617465722074686044820152630616e20360e41b6064820152608490fd5b60405162461bcd60e51b815260206004820152602360248201527f4f6e6c7920626f72726f7765722063616e2072656d6f766520636f6c6c6174656044820152621c985b60ea1b6064820152608490fd5b346102d5576101203660031901126102d55761028f611a82612451565b611a8a61247d565b90611a93612b41565b610104359160e4359160c4359160a4359160643590604435906024359061308c565b346102d55760403660031901126102d557611ace612451565b611ad6612467565b90611adf613065565b6001600160a01b031690611af48215156128cc565b6001600160a01b0316908115611b50575f81815260086020526040812080546001600160a01b0319166001600160a01b0385161790557fd2d8394cf7549a5ddbc2ba3dd7b2de8d53c891472d1f2907008ed6a10045fdae9080a3005b60405162461bcd60e51b8152602060048201526014602482015273496e76616c69642066656564206164647265737360601b6044820152606490fd5b346102d55760203660031901126102d55760043560405163044481f760e41b8152816004820152602081602481305afa9081156102e1575f91611bec575b6020611be483855f5260038352600460405f2001546126f9565b604051908152f35b90506020813d602011611c17575b81611c076020938361258b565b810103126102d557516020611bca565b3d9150611bfa565b346102d5575f3660031901126102d557602060405160648152f35b346102d55760203660031901126102d5576004355f52600360205260405f20611c65815415156125c5565b60ff600a82015416600581101561068b576001611c829114612686565b611c90600982015442612706565b9061037e600e611cc06301e187e0611cb8600486015496612710610f0b60058901548a61289b565b0480956126f9565b92015492611cce8484612706565b604051948594859094939260609260808301968352602083015260408201520152565b346102d55760203660031901126102d5575f610200604051611d128161255a565b8281528260208201528260408201528260608201528260808201528260a08201528260c08201528260e08201528261010082015282610120820152826101408201528261016082015282610180820152826101a0820152826101c0820152826101e082015201526004355f52600360205260405f20604051611d938161255a565b8154815260018201546001600160a01b0390811660208301526002830154811660408301526003830154811660608301526004830154608083015260058084015460a0840152600684015460c0840152600784015490911660e083015260088301546101008301526009830154610120830152600a83015460ff169081101561068b5761022092601091610140840152600b810154610160840152600c810154610180840152600d8101546101a0840152600e8101546101c084015260ff600f8201541615156101e08401520154610200820152610200604051918051835260018060a01b03602082015116602084015260018060a01b03604082015116604084015260018060a01b0360608201511660608401526080810151608084015260a081015160a084015260c081015160c084015260018060a01b0360e08201511660e0840152610100810151610100840152610120810151610120840152611f04610140820151610140850190612537565b6101608101516101608401526101808101516101808401526101a08101516101a08401526101c08101516101c08401526101e081015115156101e08401520151610200820152f35b346102d55760203660031901126102d5576004355f52600360205260405f20611f77815415156125c5565b60ff600a8201541690600582101561068b57611fc56301e187e091611fa0600160209514612686565b612710610f0b611fb4600984015442612706565b92600560048201549101549061289b565b04604051908152f35b346102d55760203660031901126102d5576004356006548110156102d55761072e6020916124f6565b346102d55761037e61037261200b36612493565b91612824565b346102d55760403660031901126102d55761202a612451565b6001600160a01b03165f908152600460205260409020805460243591908210156102d55760209161072e91612522565b346102d55761037e61037261206e36612493565b91612774565b346102d55760203660031901126102d557600435805f52600360205260ff600a60405f206120a4815415156125c5565b015416600581101561068b576040916120c260016120c79314612686565b612bad565b825191825215156020820152f35b346102d55760203660031901126102d5576004356120f1612b41565b805f52600360205260405f209061210a825415156125c5565b600a82019160ff835416600581101561068b576121279015612607565b60018101546001600160a01b0316331461232c576003810180546001600160a01b039081165f908152600860205260408082205460078601548416808452919092205483161515969190921615159390929091908480612325575b612258575b61219d6121b49260088501549030903390612eb5565b5460048301549033906001600160a01b0316612efe565b6002810180546001600160a01b0319163317905542600990910155805460ff191660011790556121e382612f39565b335f5260056020526121f88260405f20612649565b5f9281612250575b5061223e575b6040519142835260208301527fcc6028e98d5f977a24dcd2bcbeb3d192fa658aa8e0a3e798b267fcdd0dfcbdd160403393a360015f55005b905061224981612bad565b5090612206565b905083612200565b61226186612bad565b6122cd57600b84015411156121875760405162461bcd60e51b815260206004820152602f60248201527f496e73756666696369656e7420636f6c6c61746572616c206261736564206f6e60448201526e2063757272656e742070726963657360881b6064820152608490fd5b60405162461bcd60e51b815260206004820152602a60248201527f4f7261636c65207072696365732061726520746f6f207374616c6520746f206160448201526931b1b2b83a103637b0b760b11b6064820152608490fd5b5086612182565b60405162461bcd60e51b815260206004820152601d60248201527f4c656e6465722063616e6e6f7420616363657074206f776e206c6f616e0000006044820152606490fd5b346102d55760403660031901126102d55761238a612451565b612392612467565b6001600160a01b039182165f908152600860205260409020549091161515806123c3575b6020906040519015158152f35b506001600160a01b039081165f9081526008602090815260409091205490911615156123b6565b346102d55760203660031901126102d557600435805f52600360205261241560405f205415156125c5565b5f5260036020526020601060405f200154604051908152f35b346102d5575f3660031901126102d5576009546001600160a01b03168152602090f35b600435906001600160a01b03821682036102d557565b602435906001600160a01b03821682036102d557565b608435906001600160a01b03821682036102d557565b60609060031901126102d5576004356001600160a01b03811681036102d557906024359060443590565b60206040818301928281528451809452019201905f5b8181106124e05750505090565b82518452602093840193909201916001016124d3565b60065481101561250e5760065f5260205f2001905f90565b634e487b7160e01b5f52603260045260245ffd5b805482101561250e575f5260205f2001905f90565b90600582101561068b5752565b60409060031901126102d5576004359060243590565b610220810190811067ffffffffffffffff82111761257757604052565b634e487b7160e01b5f52604160045260245ffd5b90601f8019910116810190811067ffffffffffffffff82111761257757604052565b67ffffffffffffffff81116125775760051b60200190565b156125cc57565b60405162461bcd60e51b8152602060048201526013602482015272131bd85b88191bd95cc81b9bdd08195e1a5cdd606a1b6044820152606490fd5b1561260e57565b60405162461bcd60e51b81526020600482015260136024820152724c6f616e206973206e6f742070656e64696e6760681b6044820152606490fd5b90815491600160401b831015612577578261266c91600161268495018155612522565b90919082549060031b91821b915f19901b1916179055565b565b1561268d57565b60405162461bcd60e51b81526020600482015260126024820152714c6f616e206973206e6f742061637469766560701b6044820152606490fd5b906126d1826125ad565b6126de604051918261258b565b82815280926126ef601f19916125ad565b0190602036910137565b9190820180921161067757565b9190820391821161067757565b80511561250e5760200190565b80516001101561250e5760400190565b80516002101561250e5760600190565b80516003101561250e5760800190565b80516004101561250e5760a00190565b805182101561250e5760209160051b010190565b6001600160a01b03165f9081526005602052604090208054919290919081841015612808576127b7916127a88592836126f9565b90808211612800575b50612706565b906127c1826126c7565b925f5b8381106127d2575050505090565b806127e86127e2600193856126f9565b85612522565b90549060031b1c6127f98288612760565b52016127c4565b90505f6127b1565b5050505060405161281a60208261258b565b5f81525f36813790565b6001600160a01b03165f908152600460205260409020805491929091908184101561280857612858916127a88592836126f9565b90612862826126c7565b925f5b838110612873575050505090565b806128836127e2600193856126f9565b90549060031b1c6128948288612760565b5201612865565b8181029291811591840414171561067757565b81156128b8570490565b634e487b7160e01b5f52601260045260245ffd5b156128d357565b60405162461bcd60e51b8152602060048201526015602482015274496e76616c696420746f6b656e206164647265737360581b6044820152606490fd5b5f1981146106775760010190565b805f52600360205260405f2090612937825415156125c5565b60ff600a83015416600581101561068b576001036129e65761296260098301546006840154906126f9565b60038301546001600160a01b039081165f908152600860205260408082205460078701548416835290822054429490941195919491939192908116151591161515816129de575b506129c0575b505081156129bb575090565b905090565b6129c990612bad565b9190916129af57600c01541190505f806129af565b90505f6129a9565b50505f90565b91906006549081841015612a5057612a09916127a88592836126f9565b612a12816126c7565b905f5b818110612a23575090925050565b80612a38612a33600193886126f9565b6124f6565b90549060031b1c612a498286612760565b5201612a15565b5050905060405161281a60208261258b565b919091805f526003602052612a7c60405f205415156125c5565b5f52600360205260405f209160ff600f84015416158015612b35575b612b2d576001600160a01b0316918215612b235760206010602492015493604051928380926364f1992360e01b82528760048301525afa5f9181612ae6575b50612ae257505f9190565b9190565b9091506020813d602011612b1b575b81612b026020938361258b565b810103126102d5575180151581036102d557905f612ad7565b3d9150612af5565b601001545f925090565b505f91508190565b50601083015415612a98565b60025f5414612b505760025f55565b633ee5aeb560e01b5f5260045ffd5b908160209103126102d5575160ff811681036102d55790565b60ff6011199116019060ff821161067757565b60ff166012039060ff821161067757565b60ff16604d811161067757600a0a90565b5f9081526003602052604090206009546001600160a01b031680151580612e8f575b15612e5757602060018060a01b036007840154166024604051809481936378e2eb6160e11b835260048301525afa80156102e1575f90612e24575b60049150915f905b60038101546001600160a01b039081165f81815260086020526040902054600d840154919692612c439291166137f7565b9092908415612e1c575b508395602060018060a01b036007840154166040519788809263313ce56760e01b82525afa9081156102e1576004965f92612dfa575b506020906040519788809263313ce56760e01b82525afa9586156102e1575f96612dae575b50612d16612d1d93670de0b6b3a76400009593869360ff8116601281105f14612d7f5750612cec90612ce6612ce1600885015492612b8b565b612b9c565b9061289b565b985b60ff81166012811015612d525750612ce6612ce16004612d1094015492612b8b565b9761289b565b049461289b565b04908115612d475750612710820291808304612710149015171561067757612d44916128ae565b91565b5f1994909350915050565b60121015612d7457612d6e612ce16004612d1094015492612b78565b906128ae565b50600401549761289b565b60121015612da257612d9c90612d6e612ce1600885015492612b78565b98612cee565b50600881015498612cee565b670de0b6b3a764000094928592975093612d1d94612de6612d169360203d602011612df3575b612dde818361258b565b810190612b5f565b9893509395509350612ca8565b503d612dd4565b6020919250612e1590823d8411612df357612dde818361258b565b9190612c83565b93505f612c4d565b506020813d602011612e4f575b81612e3e6020938361258b565b810103126102d55760049051612c0a565b3d9150612e31565b5060078101546001600160a01b039081165f90815260086020526040902054600d830154600492612e8892166137f7565b9092612c12565b5060078201546001600160a01b039081165f908152600860205260409020541615612bcf565b6040516323b872dd60e01b60208201526001600160a01b03928316602482015292909116604483015260648083019390935291815261268491612ef960848361258b565b6139c6565b60405163a9059cbb60e01b60208201526001600160a01b03909216602483015260448083019390935291815261268491612ef960648361258b565b600654801561306157815f52600760205260405f20549080821080613049575b612f6257505050565b5f19810190811161067757808203613019575b50506006548015613005575f1901612f8c816124f6565b8154905f199060031b1b19169055600655805f5260076020525f60408120557f1dd1ce4f0380f2b891abb10b0dba16d8a50f29c3b488bebbf30110f7c6b9c90b606060405160208152601a60208201527f4c6f616e206163636570746564206f722063616e63656c6c65640000000000006040820152a2565b634e487b7160e01b5f52603160045260245ffd5b613022906124f6565b90549060031b1c6130368161266c846124f6565b5f52600760205260405f20555f80612f75565b5082613054836124f6565b90549060031b1c14612f59565b5050565b6001546001600160a01b0316330361307957565b63118cdaa760e01b5f523360045260245ffd5b6001600160a01b03169790969195909491939092906130ac8915156128cc565b87156137665786156137155761271087116136d157811561368c576301e133808211613647576001600160a01b03169081156136025782156135ac57848410613554576127108511156135035785156134be575f89815260086020526040808220548483529120546001600160a01b03908116159116158015816134b6575b613403575b50506002549661313f88612910565b60025561314e8930338d612eb5565b6009546001600160a01b03161515806133e5575b6040519061316f8261255a565b8982523360208301525f60408301528b60608301528a60808301528260a08301528360c08301528460e0830152856101008301525f6101208301525f6101408301528661016083015287610180830152886101a08301525f6101c083015215156101e08201525f610200820152885f52600360205260405f20908051825560018060a01b03602082015116600183019060018060a01b03166001600160601b0360a01b82541617905560018060a01b03604082015116600283019060018060a01b03166001600160601b0360a01b82541617905560018060a01b03606082015116600383019060018060a01b03166001600160601b0360a01b8254161790556080810151600483015560a0810151600583015560c0810151600683015560018060a01b0360e082015116600783019060018060a01b03166001600160601b0360a01b82541617905561010081015160088301556101208101516009830155600a82019061014081015190600582101561068b576010926102009260ff80198354169116179055610160810151600b850155610180810151600c8501556101a0810151600d8501556101c0810151600e850155600f84016101e0820151151560ff801983541691161790550151910155600654600160401b811015612577578861266c82600161336394016006556006612522565b6006545f19810190811161067757885f52600760205260405f2055335f5260046020526133938860405f20612649565b604051988952602089015260408801526060870152608086015260a085015260c084015260e08301527fda9a8d7c0d4f8f975c827f863ba2ecc46bf5e147be0763b2119eb5f867c9aa026101003393a4565b505f838152600860205260409020546001600160a01b031615613162565b61346757613412575f80613130565b60405162461bcd60e51b815260206004820152602760248201527f50726963652066656564206e6f742073657420666f7220636f6c6c617465726160448201526636103a37b5b2b760c91b6064820152608490fd5b60405162461bcd60e51b815260206004820152602160248201527f50726963652066656564206e6f742073657420666f72206c6f616e20746f6b656044820152603760f91b6064820152608490fd5b50811561312b565b60405162461bcd60e51b815260206004820152601f60248201527f4d6178207072696365207374616c656e657373206d75737420626520736574006044820152606490fd5b60405162461bcd60e51b8152602060048201526024808201527f4c69717569646174696f6e207468726573686f6c64206d757374206265203e206044820152633130302560e01b6064820152608490fd5b60405162461bcd60e51b815260206004820152602a60248201527f4d696e20726174696f206d757374206265203e3d206c69717569646174696f6e604482015269081d1a1c995cda1bdb1960b21b6064820152608490fd5b60405162461bcd60e51b815260206004820152602860248201527f436f6c6c61746572616c20616d6f756e74206d75737420626520677265617465604482015267072207468616e20360c41b6064820152608490fd5b60405162461bcd60e51b815260206004820152601a60248201527f496e76616c696420636f6c6c61746572616c20616464726573730000000000006044820152606490fd5b60405162461bcd60e51b815260206004820152601d60248201527f4475726174696f6e2063616e6e6f7420657863656564203120796561720000006044820152606490fd5b60405162461bcd60e51b815260206004820152601f60248201527f4475726174696f6e206d7573742062652067726561746572207468616e2030006044820152606490fd5b606460405162461bcd60e51b815260206004820152602060248201527f496e74657265737420726174652063616e6e6f742065786365656420313030256044820152fd5b60405162461bcd60e51b8152602060048201526024808201527f496e7465726573742072617465206d75737420626520677265617465722074686044820152630616e20360e41b6064820152608490fd5b60405162461bcd60e51b815260206004820152601d60248201527f416d6f756e74206d7573742062652067726561746572207468616e20300000006044820152606490fd5b6137b490613a1e565b600381101561068b576002146137cb576201518090565b6201518090565b519069ffffffffffffffffffff821682036102d557565b604d811161067757600a0a90565b604051633fabe5a360e21b81525f9290916001600160a01b03169060a083600481855afa9182156102e1575f935f93613970575b505f84131561392b5782156138e65760206004916040519283809263313ce56760e01b82525afa9081156102e1576138709160ff915f916138c7575b50169242612706565b116138be575b601281101561389757601203906012821161067757612ce6612d44926137e9565b9060128211156138b957601119820191821161067757612d6e612d44926137e9565b905091565b60019250613876565b6138e0915060203d602011612df357612dde818361258b565b5f613867565b60405162461bcd60e51b815260206004820152601d60248201527f496e76616c69642074696d657374616d702066726f6d206f7261636c650000006044820152606490fd5b60405162461bcd60e51b815260206004820152601960248201527f496e76616c69642070726963652066726f6d206f7261636c65000000000000006044820152606490fd5b9350915060a0833d60a0116139be575b8161398d60a0938361258b565b810103126102d55761399e836137d2565b5060208301516139b56080606086015195016137d2565b5092915f61382b565b3d9150613980565b905f602091828151910182855af1156102e1575f513d613a1557506001600160a01b0381163b155b6139f55750565b635274afe760e01b5f9081526001600160a01b0391909116600452602490fd5b600114156139ee565b6001600160a01b0316735c99feb638c1959144696a77cc900c58a4b4eb6f81148015613abc575b15613a4f57505f90565b739c15f281bfc66d2fa26686ae2e297ed5d7f61ee18103613a705750600190565b73e218717fe38d582b8c00a8d6363f5bc7bf32a8b68114908115613a9e575b50613a9957600290565b600290565b7371264e1321e1980b32002eaf6b24759dfba5e2819150145f613a8f565b5073571d9915ea4d187b7f0b1460fd0432d7cce74c478114613a4556fea26469706673582212209496b0e5c2440158f9873fd99300c46e9b7d63e5a4429b638821db0e326ed79264736f6c634300081a0033","linkReferences":{}},"methodIdentifiers":{"LIQUIDATION_FEE_BPS()":"518e8dfc","acceptLoanOffer(uint256)":"21265d0e","activeLoanOfferIds(uint256)":"4402cc2b","addCollateral(uint256,uint256)":"a8f35adf","borrowerLoans(address,uint256)":"e3ed1902","calculateCurrentInterest(uint256)":"44481f70","calculateTotalRepayment(uint256)":"5858224b","cancelLoanOffer(uint256)":"74cbe57e","checkDomainLockStatus(uint256,address)":"fc593a37","createLoanOffer(address,uint256,uint256,uint256,address,uint256)":"ff49cb88","createLoanOffer(address,uint256,uint256,uint256,address,uint256,uint256,uint256,uint256)":"691ef756","domaRankOracleAddress()":"0d51ce06","filterDomaBackedLoans(uint256[])":"b6418161","getActiveLoanOffers()":"904796d4","getActiveLoanOffersCount()":"9b44d82b","getActiveLoanOffersPaginated(uint256,uint256)":"f97bcec9","getBorrowerLoans(address)":"eee8b7ff","getBorrowerLoansCount(address)":"fe7f8c3a","getBorrowerLoansPaginated(address,uint256,uint256)":"30edaa0a","getDomainTokenId(uint256)":"15f515ac","getLenderLoans(address)":"eeeb0c17","getLenderLoansCount(address)":"eb52927b","getLenderLoansPaginated(address,uint256,uint256)":"42f89a57","getLoan(uint256)":"504006ca","getLoanHealthFactor(uint256)":"2ff6ad6a","getLoanRepaymentInfo(uint256)":"50e4ca1a","getRecommendedParameters(address,address)":"e70b9c4b","getSupportedTokens()":"d3c7c2c7","isDomaBackedLoan(uint256)":"f67c3bac","isLoanDefaulted(uint256)":"e8cbab09","isLoanPairSupported(address,address)":"2098ef9c","lenderLoans(address,uint256)":"3cdb72f1","liquidateLoan(uint256)":"ccdd9f5d","loanExists(uint256)":"e4ec99a5","loans(uint256)":"e1ec3c68","makePartialRepayment(uint256,uint256)":"b29504e9","nextLoanId()":"87c51459","owner()":"8da5cb5b","removeCollateral(uint256,uint256)":"6a9b1891","renounceOwnership()":"715018a6","repayLoan(uint256)":"ab7b1c89","setDomaRankOracle(address)":"79797f1a","setTokenPriceFeed(address,address)":"674417ae","tokenPriceFeeds(address)":"bd9c47e3","transferOwnership(address)":"f2fde38b"},"userdoc":{"version":1,"kind":"user","methods":{"acceptLoanOffer(uint256)":{"notice":"Accepts an existing loan offer"},"addCollateral(uint256,uint256)":{"notice":"Allows borrower to add additional collateral to an active loan"},"calculateCurrentInterest(uint256)":{"notice":"Calculates the current interest for an active loan"},"calculateTotalRepayment(uint256)":{"notice":"Calculates the total repayment amount for an active loan"},"cancelLoanOffer(uint256)":{"notice":"Cancels a pending loan offer and returns funds to lender"},"checkDomainLockStatus(uint256,address)":{"notice":"Check domain lock status for compliance (future feature)"},"createLoanOffer(address,uint256,uint256,uint256,address,uint256)":{"notice":"Creates a new loan offer with default oracle parameters (for testing/simple use)"},"createLoanOffer(address,uint256,uint256,uint256,address,uint256,uint256,uint256,uint256)":{"notice":"Creates a new loan offer with custom oracle parameters"},"filterDomaBackedLoans(uint256[])":{"notice":"Get all Doma-backed loan IDs from an array of loan IDs"},"getActiveLoanOffers()":{"notice":"Returns all active loan offer IDs"},"getActiveLoanOffersCount()":{"notice":"Returns the total count of active loan offers"},"getActiveLoanOffersPaginated(uint256,uint256)":{"notice":"Returns paginated active loan offer IDs"},"getBorrowerLoans(address)":{"notice":"Gets all loan IDs for a borrower"},"getBorrowerLoansCount(address)":{"notice":"Returns the total count of loans for a borrower"},"getBorrowerLoansPaginated(address,uint256,uint256)":{"notice":"Gets paginated loan IDs for a borrower"},"getDomainTokenId(uint256)":{"notice":"Get the domain token ID for a Doma-backed loan"},"getLenderLoans(address)":{"notice":"Gets all loan IDs for a lender"},"getLenderLoansCount(address)":{"notice":"Returns the total count of loans for a lender"},"getLenderLoansPaginated(address,uint256,uint256)":{"notice":"Gets paginated loan IDs for a lender"},"getLoan(uint256)":{"notice":"Gets loan details by ID"},"getLoanHealthFactor(uint256)":{"notice":"Gets the current health factor (collateralization ratio) of an active loan."},"getLoanRepaymentInfo(uint256)":{"notice":"Gets detailed repayment information for an active loan"},"getRecommendedParameters(address,address)":{"notice":"Get recommended collateral parameters for a loan asset and collateral asset pair"},"getSupportedTokens()":{"notice":"Get all supported tokens for lending"},"isDomaBackedLoan(uint256)":{"notice":"Check if a loan uses Doma fractional token as collateral"},"isLoanDefaulted(uint256)":{"notice":"Checks if a loan has defaulted (past due date or undercollateralized)"},"isLoanPairSupported(address,address)":{"notice":"Check if both tokens in a loan pair are supported"},"liquidateLoan(uint256)":{"notice":"Liquidates a defaulted loan (can be called by anyone after default)"},"loanExists(uint256)":{"notice":"Checks if a loan exists"},"makePartialRepayment(uint256,uint256)":{"notice":"Allows borrower to make a partial repayment on an active loan"},"removeCollateral(uint256,uint256)":{"notice":"Allows borrower to remove collateral from an active loan (if health factor allows)"},"repayLoan(uint256)":{"notice":"Repays an active loan"},"setDomaRankOracle(address)":{"notice":"Sets the DomaRank oracle address for fractional token valuations"},"setTokenPriceFeed(address,address)":{"notice":"Sets the price feed contract for a given ERC20 token."}},"notice":"This contract enables peer-to-peer lending with collateral backing"},"devdoc":{"version":1,"kind":"dev","details":"A decentralized lending protocol for Somnia L1 testnet","methods":{"acceptLoanOffer(uint256)":{"params":{"loanId":"The ID of the loan offer to accept"}},"addCollateral(uint256,uint256)":{"params":{"additionalAmount":"Amount of additional collateral to add","loanId":"The ID of the loan to add collateral to"}},"calculateCurrentInterest(uint256)":{"params":{"loanId":"The loan ID to calculate interest for"},"returns":{"_0":"The current interest amount"}},"calculateTotalRepayment(uint256)":{"params":{"loanId":"The loan ID to calculate repayment for"},"returns":{"_0":"The total repayment amount (principal + interest)"}},"cancelLoanOffer(uint256)":{"params":{"loanId":"The ID of the loan offer to cancel"}},"checkDomainLockStatus(uint256,address)":{"details":"This demonstrates integration with IDomaOwnershipToken for compliance checks","params":{"domaOwnershipAddress":"The address of the DomaOwnership NFT contract","loanId":"The loan ID to check"},"returns":{"domainId":"The domain token ID (0 if not available)","isLocked":"True if the underlying domain NFT is locked"}},"createLoanOffer(address,uint256,uint256,uint256,address,uint256)":{"params":{"_amount":"Amount of tokens to lend","_collateralAddress":"Address of the collateral token","_collateralAmount":"Amount of collateral required","_duration":"Loan duration in seconds","_interestRate":"Interest rate in basis points (e.g., 500 = 5%)","_tokenAddress":"Address of the ERC20 token to lend"}},"createLoanOffer(address,uint256,uint256,uint256,address,uint256,uint256,uint256,uint256)":{"params":{"_amount":"Amount of tokens to lend","_collateralAddress":"Address of the collateral token","_collateralAmount":"Amount of collateral required","_duration":"Loan duration in seconds","_interestRate":"Interest rate in basis points (e.g., 500 = 5%)","_liquidationThresholdBPS":"Collateral ratio below which loan can be liquidated (e.g., 12000 for 120%)","_maxPriceStaleness":"Max age of oracle price data for this loan (seconds)","_minCollateralRatioBPS":"Minimum acceptable collateral ratio for this loan (e.g., 15000 for 150%)","_tokenAddress":"Address of the ERC20 token to lend"}},"filterDomaBackedLoans(uint256[])":{"params":{"loanIds":"Array of loan IDs to filter"},"returns":{"_0":"Array of Doma-backed loan IDs"}},"getActiveLoanOffers()":{"returns":{"_0":"Array of active loan offer IDs"}},"getActiveLoanOffersCount()":{"returns":{"_0":"Total number of active loan offers"}},"getActiveLoanOffersPaginated(uint256,uint256)":{"params":{"count":"Maximum number of offers to return","startIndex":"Starting index for pagination"},"returns":{"_0":"Array of active loan offer IDs (up to count items)"}},"getBorrowerLoans(address)":{"params":{"borrower":"The borrower's address"},"returns":{"_0":"Array of loan IDs where the address is the borrower"}},"getBorrowerLoansCount(address)":{"params":{"borrower":"The borrower's address"},"returns":{"_0":"Total number of loans for the borrower"}},"getBorrowerLoansPaginated(address,uint256,uint256)":{"params":{"borrower":"The borrower's address","count":"Maximum number of loans to return","startIndex":"Starting index for pagination"},"returns":{"_0":"Array of loan IDs (up to count items)"}},"getDomainTokenId(uint256)":{"params":{"loanId":"The loan ID to query"},"returns":{"_0":"The domain NFT token ID (0 if not Doma-backed or not set)"}},"getLenderLoans(address)":{"params":{"lender":"The lender's address"},"returns":{"_0":"Array of loan IDs where the address is the lender"}},"getLenderLoansCount(address)":{"params":{"lender":"The lender's address"},"returns":{"_0":"Total number of loans for the lender"}},"getLenderLoansPaginated(address,uint256,uint256)":{"params":{"count":"Maximum number of loans to return","lender":"The lender's address","startIndex":"Starting index for pagination"},"returns":{"_0":"Array of loan IDs (up to count items)"}},"getLoan(uint256)":{"params":{"loanId":"The loan ID to query"},"returns":{"_0":"Loan struct containing all loan details"}},"getLoanHealthFactor(uint256)":{"params":{"loanId":"The ID of the loan."},"returns":{"currentRatio":"The current collateralization ratio in basis points.","priceStale":"True if any required oracle price is stale."}},"getLoanRepaymentInfo(uint256)":{"params":{"loanId":"The loan ID to query"},"returns":{"interestAccrued":"Total interest accrued so far","remainingAmount":"Amount still owed","repaidAmount":"Amount already repaid","totalOwed":"Total amount owed (principal + interest)"}},"getRecommendedParameters(address,address)":{"params":{"collateralAsset":"The token being used as collateral","loanAsset":"The token being borrowed"},"returns":{"liquidationThreshold":"Recommended liquidation threshold in basis points","maxStaleness":"Recommended maximum price staleness in seconds","minRatio":"Recommended minimum collateral ratio in basis points"}},"getSupportedTokens()":{"returns":{"tokens":"Array of supported token addresses"}},"isDomaBackedLoan(uint256)":{"params":{"loanId":"The loan ID to check"},"returns":{"_0":"True if the loan uses Doma collateral, false otherwise"}},"isLoanDefaulted(uint256)":{"params":{"loanId":"The loan ID to check"},"returns":{"_0":"True if the loan has defaulted, false otherwise"}},"isLoanPairSupported(address,address)":{"params":{"collateralAsset":"The token being used as collateral","loanAsset":"The token being borrowed"},"returns":{"supported":"True if both tokens have price feeds configured"}},"liquidateLoan(uint256)":{"params":{"loanId":"The ID of the loan to liquidate"}},"loanExists(uint256)":{"params":{"loanId":"The loan ID to check"},"returns":{"_0":"True if the loan exists, false otherwise"}},"makePartialRepayment(uint256,uint256)":{"params":{"loanId":"The ID of the loan to make partial repayment on","repaymentAmount":"Amount to repay (principal + interest portion)"}},"owner()":{"details":"Returns the address of the current owner."},"removeCollateral(uint256,uint256)":{"params":{"loanId":"The ID of the loan to remove collateral from","removeAmount":"Amount of collateral to remove"}},"renounceOwnership()":{"details":"Leaves the contract without owner. It will not be possible to call `onlyOwner` functions. Can only be called by the current owner. NOTE: Renouncing ownership will leave the contract without an owner, thereby disabling any functionality that is only available to the owner."},"repayLoan(uint256)":{"params":{"loanId":"The ID of the loan to repay"}},"setDomaRankOracle(address)":{"details":"Only callable by the contract owner","params":{"_oracleAddress":"The address of the DomaRank oracle contract"}},"setTokenPriceFeed(address,address)":{"details":"Only callable by the contract owner.","params":{"_feedAddress":"The address of the DIA AggregatorV3Interface adapter for this token.","_tokenAddress":"The address of the ERC20 token (e.g., USDT, USDC)."}},"transferOwnership(address)":{"details":"Transfers ownership of the contract to a new account (`newOwner`). Can only be called by the current owner."}},"errors":{"OwnableInvalidOwner(address)":[{"details":"The owner is not a valid owner account. (eg. `address(0)`)"}],"OwnableUnauthorizedAccount(address)":[{"details":"The caller account is not authorized to perform an operation."}],"ReentrancyGuardReentrantCall()":[{"details":"Unauthorized reentrant call."}],"SafeERC20FailedOperation(address)":[{"details":"An operation with an ERC-20 token failed."}]},"title":"DreamLend"},"id":33}